:100AC500C2AF75EF068F828E8375B7A575B7F12214
:100A5C00A2AF9201120AC5438F0175EF06EDF05358
:060A6C008FFEA20192AF13
:010A72002261
:100AA100A2AF9201C2AF8F828E83E493FFA2019223
:010AB100AF95
:010AB2002221
:100A7300A2AF9201120AC5438F0375EF06E4F05348
:060A83008FFCA20192AFFE
:010A8900224A
:100A0800E6FE08E6FF787BEEF6FE08EFF6FF0876CE
:100A18001A0876007879E6FC08E6FD787F22F6E584
:100A28005A255CFDE559355B22E6FE08E6FFC32240
:080026008E598F5A8C5B8D5C32
:10002E0078797602087600E424FFFF740234FFFE2E
:10003E00EFF4FFEEF4FE5559FCE55A5FFD786FECD8
:10004E00F608EDF62400FDEC3402CD24FF7872F6AE
:10005E00ED34FF18120A265EFEED5FFF7873EEF6A2
:10006E0008EFF62400FFEE3402CF24FFCF34FFFE5C
:10007E0008F608EFF6787266700318E66E706AFF7F
:10008E001201AEFFE5599E08F6FA08EFF6FB7F0067
:10009E007E1A12094EE4255AFFE559341AFEC3EFB3
:1000AE00787096FFEE1896FEE55C2FFFE55B3EFE40
:1000BE00787BF608EF120A26FC08F608EDF6C378F0
:1000CE0072E6955AFB18E69559FAC3EB955CFBEA76
:1000DE00955BCB24017880F6E43B18F6E6FA08E649
:1000EE00FB1201D1786F02019A7F001201AE788067
:1000FE00F6E5599E18F6E6FA08E6FB7F007E1A1220
:10010E0001D1786F120A08A60408A60518E6FA08A7
:10011E00E6FB7D007C1A12094E7F007E1A120A73CE
:10012E00C37872E6955AFF18E69559CF2401CF345D
:10013E0000FEC3E55C9F7878F6E55B9E18F6E6FE5A
:10014E0008E6FF2400787CF6EE341A18F67874E68A
:10015E002FFF18E63E787DF6FC08EFF6FDC3797AA0
:10016E00E7787896FF19E71896787FF608A607784D
:10017E007BE6FE08E6FF787FE6FA08E6FB12094EFC
:10018E007873E6FE08E6FF120A737873120A08EC1B
:0F019E00F608EDF6AA04AB057D007C1A12094E97
:1001AD00227E1A120A73787B761A087600786FE62B
:1001BD00FE08E6FF787DEEF608EFF6AC06AD07C358
:1001CD00E55A9F2212094E786FE6FE08E6FF120AE5
:0201DD0073228B
:100A38008E528F538B548A558956AD58AC57120035
:100A480026AB54AA55A95685575E85585FAF53AE55
:040A58005202090934
:0A0909008E598F5A8B5B8A5C895D62
:10091300786FA65908A65AE55A255FFDE559355E55
:10092300FC786F120A319DEE9C501FAB5B055DE5B1
:100933005DAA5C7002055C14F91201DFFD120A5C0A
:0A094300787006E61870D00680CD2B
:01094D002287
:0A08BF008B4D8A4E894F8C508D51ED
:1008C900E4786FF608F6786F120A319553EE95526F
:1008D9005027E5512FFFE5503EFE120AA1AB4D0509
:1008E9004FE54FAA4E7002054E14F9EF1202257812
:0F08F9007006E61870D00680CDAB4DAA4EA94F01
:0109080022CC
:0C094E008E5D8F5E8C5F8D608A618B6215
:10095A00E47881F608F67881120A319562EE95619B
:10096A005025E5602FFFE55F3EFE120AA1AD07E5BF
:10097A005E788226FFE55D1836FE120A5C788206EA
:07098A00E61870D20680CFD1
:010991002243
:040992008E088F0933
:10099600E47813F608F67813E6FE08E6FFE4FCFDB5
:1009A600AB0DAA0CA90BA80AD3120354401AE509E9
:1009B600781426FFE5081836FEAD0E120A5C781488
:0809C60006E61870D10680CE90
:0109CE002206
:0C0AEF00D3AB64AA63A962A8610203549F
:080771008F648E638D628C61C0
:10077900E4F5657F807E9F7DD5FCC3120AF05003A6
:100789000207E67FA27E547DA37C01120AEF500581
:10079900756510804B7F447EA97D467C03120AEF64
:1007A900500575650880397F887E527D8D7C0612DB
:1007B9000AEF500575650480277F107EA57D1A7C98
:1007C9000D120AEF500575650280157F007EDE7DEA
:1007D900397C1A120AEF50057565018003E4F56545
:0207E900AF65FA
:0107EB0022EB
:0A0365008F618C628D638A648B65E2
:10036F00E4F566F56A756940F5687567051204313D
:10037F00E4F56AE561B410057569C1802AE561B4D9
:10038F0008057569B18020E561B404057569A18020
:10039F0016E561B40205756991800CE561B401053C
:1003AF00756981800280FE7568B075673C7B007A45
:1003BF000079677F041207ECE4F56AF56975680444
:1003CF007567B3120431756A04E4F56975685F7572
:1003DF0067C212043C756A08E4F569756880756731
:1003EF00D112043CE562F56AC313E56313F569E5C1
:1003FF0065AE647805CEC313CE13D8F9541FF568D4
:10040F00E56330E005436880800353687FAF65EF95
:10041F0033333354F8F5677B007A0079677F040232
:02042F0007ECD8
:10043100FB7A0079677F041207EC22FB7A00796767
:060441007F041207EC220B
:0804F8008F558E548D538C5278
:10050000E4F556F557F558F55CF55BF55AF559F5F0
:1005100060F55FF55EF55D1207718F56E556700266
:10052000FF22AF56E4FCFDFEAB55AA54A953A852D6
:100530001202378F608E5F8D5E8C5D7B407AAC7966
:100540002778001202C28E578F587B407AAC7927E9
:100550007800AF60AE5FAD5EAC5D1202C2AC00ADC4
:1005600001AE02AF038F5C8E5B8D5A8C59E47B1019
:100570007A27F9F81202C2EF2405FFE43EFEE43DBB
:10058000FDE43CFCE47B0AFAF9F81202C28F5C8EAF
:100590005B8D5A8C59AA5BAB5CAD58AC57AF561209
:0405A00003657F016F
:0105A4002234
:040A8A007F047E0067
:100A8E00D3EF9400EE648094804007EF1F70F11E48
:030A9E0080EE22C5
:0807EC008F6B8B6C8A6D896E26
:1007F400E4FDFCFB007F04FE120A8E5380FD53804F
:10080400FB120A8AAC6BECD394004038AB6CEC7EE0
:1008140000256EF9EE356DFA90FFFF1201F8FDE444
:10082400FBED30E70543800880035380F7120A8A02
:10083400438002120A8AED25E0FD5380FD0BBB08BC
:10084400E01C80C25380F7120A8A4380047F047E2E
:0408540000020A8E06
:020021001000CD
:060B0700040F00000000D5
:1009CF0024D0FFE434FFFEE4FCFDE5502FF550E5A5
:1009DF004F3EF54FED354EF54EEC354DF54D22753D
:1009EF003924753A45753B52753C52753D4F753EEE
:0909FF005222E47B0AFAF9F82205
:10000300EF4E6015E4FDFC0DBD00010CBC03F8BD13
:09001300E8F5EF1F70EA1E80E71A
:01001C0022C1
:1005A500120AB3120AFB7B007A00790F900021E44E
:1005B50093FC740193FD7552007553041208BFE452
:1005C500FFFEFDFCAB12AA11A910A80FC31203541C
:1005D5007028E58030E7047F0180027F00EF600E20
:1005E5007512007511E17510F5750F05800C751202
:1005F500007511C27510EB750F0BAF12AE11AD1072
:10060500AC0F1204F87F031204471206477FE87EF9
:1006150003120003E58030E6047F0180027F00EFCE
:1006250060055380BF8003438040E58030E7047F49
:100635000180027F00EF600553807F80CD4380807D
:0206450080C86B
:10044700E4F555F554F553F5528512558511548544
:100457001053850F52EF14601514601A14603A2474
:100467000360030204F71209EE753F31801D12097C
:10047700EE753F328015753924753A53753B5475BF
:100487003C46753D3A753E4F753F4B75402175416A
:1004970023E4F5217522098054753924753A467588
:1004A7003B52753C51753D3A75560D120A01AF55D1
:1004B700AE54AD53AC521202C2EB2430FF7439254F
:1004C70056F8A607AF55AE54AD53AC52120A0112F7
:1004D70002C28F558E548D538C521556E556B4046F
:1004E700CA754730754823E4F521752210439802F1
:0104F70022E2
:10064700E4F550F54FF54EF54DF551200003020640
:10065700E4C200E5246453706CE52564547066E5D4
:10066700266446706075510574232551F8E6120912
:10067700CFAF50AE4FAD4EFC120A011202378F506A
:100687008E4F8D4E8C4D0551E551B40DDBE5301283
:1006970009CF855012854F11854E10F50F90002117
:1006A700E493FE740193FF7B007A00790F7557007E
:1006B700755804120A38AF12AE11AD10AC0F120400
:1006C700F87F028015E524B4470EE525B45409E503
:0D06D70026B446047F038002E4FF120447AE
:0106E40022F3
:0410000000000000EC
:0C0AFB00E4F521F522F537F538C20022A1
:0300230002085878
:0B085800C0E0C0D075D000C000C00799
:1008630030983AC298AF99EF24DD600B1470197574
:100873002324753701802674232537F8762385379B
:1008830038753700D2008015E537C39414500B74C4
:10089300232537F8A60705378003753700309913EA
:1008A300C299E521C39522500A74392521F8E6F54A
:0308B30099052183
:0908B600D007D000D0D0D0E03210
:070B0E0053D9BFE4F5D92221
:0D0AD500758840758920758E10758DCB22B7
:04001D007598302280
:0D0AE20075A40E75E14175E20375E3402235
:040B1C0075B2062286
:070B150075B81075A89022CD
:100AB300120B0E120AD512001D120AE2120B1C02AF
:020AC3000B1511
:030000000206E510
:0C06E500787FE4F6D8FD75818202072CB6
:1006F1000205A5E493A3F8E493A34003F68001F275
:1007010008DFF48029E493A3F85407240CC8C33309
:10071100C4540F4420C8834004F456800146F6DFD8
:10072100E4800B0102040810204080900B07E47E56
:10073100019360BCA3FF543F30E509541FFEE493CD
:10074100A360010ECF54C025E060A840B8E493A394
:10075100FAE493A3F8E493A3C8C582C8CAC583CABF
:10076100F0A3C8C582C8CAC583CADFE9DEE780BE77
:010B0D0000E7
:1001DF00BB010689828A83E0225002E722BBFE021E
:0901EF00E32289828A83E4932251
:1001F800BB010CE58229F582E5833AF583E02250BC
:1002080006E92582F8E622BBFE06E92582F8E22205
:0D021800E58229F582E5833AF583E493221F
:10022500BB010689828A83F0225002F722BBFE01B8
:02023500F322B2
:10023700E88FF0A4CC8BF0A42CFCE98EF0A42CFC66
:100247008AF0EDA42CFCEA8EF0A4CDA8F08BF0A4E4
:100257002DCC3825F0FDE98FF0A42CCD35F0FCEB43
:100267008EF0A4FEA9F0EB8FF0A4CFC5F02ECD3908
:0F027700FEE43CFCEAA42DCE35F0FDE43CFC2275
:1002860075F008758200EF2FFFEE33FECD33CDCC2F
:1002960033CCC58233C5829BED9AEC99E5829840B2
:1002A6000CF582EE9BFEED9AFDEC99FC0FD5F0D68F
:1002B600E4CEFBE4CDFAE4CCF9A88222B800C1B9B9
:1002C6000059BA002DEC8BF084CFCECDFCE5F0CBF7
:1002D600F97818EF2FFFEE33FEED33FDEC33FCEB30
:1002E60033FB10D703994004EB99FB0FD8E5E4F9EB
:1002F600FA227818EF2FFFEE33FEED33FDEC33FCD8
:10030600C933C910D7059BE99A4007EC9BFCE99ACB
:10031600F90FD8E0E4C9FAE4CCFB2275F010EF2F10
:10032600FFEE33FEED33FDCC33CCC833C810D70710
:100336009BEC9AE899400AED9BFDEC9AFCE899F84B
:0E0346000FD5F0DAE4CDFBE4CCFAE4C8F922DE
:10035400EB9FF5F0EA9E42F0E99D42F0E89C45F0FF
:010364002276
:00000001FF
